{
  "_format": "hh-sol-artifact-1",
  "contractName": "AetherCarbon",
  "sourceName": "contracts/AetherCarbon.sol",
  "abi": [
    {
      "inputs": [
        {
          "internalType": "address",
          "name": "_authorizedBackendAddress",
          "type": "address"
        },
        {
          "internalType": "address",
          "name": "_treasuryWallet",
          "type": "address"
        }
      ],
      "stateMutability": "nonpayable",
      "type": "constructor"
    },
    {
      "inputs": [],
      "name": "ECDSAInvalidSignature",
      "type": "error"
    },
    {
      "inputs": [
        {
          "internalType": "uint256",
          "name": "length",
          "type": "uint256"
        }
      ],
      "name": "ECDSAInvalidSignatureLength",
      "type": "error"
    },
    {
      "inputs": [
        {
          "internalType": "bytes32",
          "name": "s",
          "type": "bytes32"
        }
      ],
      "name": "ECDSAInvalidSignatureS",
      "type": "error"
    },
    {
      "inputs": [
        {
          "internalType": "address",
          "name": "sender",
          "type": "address"
        },
        {
          "internalType": "uint256",
          "name": "tokenId",
          "type": "uint256"
        },
        {
          "internalType": "address",
          "name": "owner",
          "type": "address"
        }
      ],
      "name": "ERC721IncorrectOwner",
      "type": "error"
    },
    {
      "inputs": [
        {
          "internalType": "address",
          "name": "operator",
          "type": "address"
        },
        {
          "internalType": "uint256",
          "name": "tokenId",
          "type": "uint256"
        }
      ],
      "name": "ERC721InsufficientApproval",
      "type": "error"
    },
    {
      "inputs": [
        {
          "internalType": "address",
          "name": "approver",
          "type": "address"
        }
      ],
      "name": "ERC721InvalidApprover",
      "type": "error"
    },
    {
      "inputs": [
        {
          "internalType": "address",
          "name": "operator",
          "type": "address"
        }
      ],
      "name": "ERC721InvalidOperator",
      "type": "error"
    },
    {
      "inputs": [
        {
          "internalType": "address",
          "name": "owner",
          "type": "address"
        }
      ],
      "name": "ERC721InvalidOwner",
      "type": "error"
    },
    {
      "inputs": [
        {
          "internalType": "address",
          "name": "receiver",
          "type": "address"
        }
      ],
      "name": "ERC721InvalidReceiver",
      "type": "error"
    },
    {
      "inputs": [
        {
          "internalType": "address",
          "name": "sender",
          "type": "address"
        }
      ],
      "name": "ERC721InvalidSender",
      "type": "error"
    },
    {
      "inputs": [
        {
          "internalType": "uint256",
          "name": "tokenId",
          "type": "uint256"
        }
      ],
      "name": "ERC721NonexistentToken",
      "type": "error"
    },
    {
      "inputs": [
        {
          "internalType": "address",
          "name": "owner",
          "type": "address"
        }
      ],
      "name": "OwnableInvalidOwner",
      "type": "error"
    },
    {
      "inputs": [
        {
          "internalType": "address",
          "name": "account",
          "type": "address"
        }
      ],
      "name": "OwnableUnauthorizedAccount",
      "type": "error"
    },
    {
      "inputs": [],
      "name": "ReentrancyGuardReentrantCall",
      "type": "error"
    },
    {
      "anonymous": false,
      "inputs": [
        {
          "indexed": true,
          "internalType": "address",
          "name": "owner",
          "type": "address"
        },
        {
          "indexed": true,
          "internalType": "address",
          "name": "approved",
          "type": "address"
        },
        {
          "indexed": true,
          "internalType": "uint256",
          "name": "tokenId",
          "type": "uint256"
        }
      ],
      "name": "Approval",
      "type": "event"
    },
    {
      "anonymous": false,
      "inputs": [
        {
          "indexed": true,
          "internalType": "address",
          "name": "owner",
          "type": "address"
        },
        {
          "indexed": true,
          "internalType": "address",
          "name": "operator",
          "type": "address"
        },
        {
          "indexed": false,
          "internalType": "bool",
          "name": "approved",
          "type": "bool"
        }
      ],
      "name": "ApprovalForAll",
      "type": "event"
    },
    {
      "anonymous": false,
      "inputs": [
        {
          "indexed": true,
          "internalType": "address",
          "name": "newAddress",
          "type": "address"
        }
      ],
      "name": "BackendAddressUpdated",
      "type": "event"
    },
    {
      "anonymous": false,
      "inputs": [
        {
          "indexed": false,
          "internalType": "uint256",
          "name": "_fromTokenId",
          "type": "uint256"
        },
        {
          "indexed": false,
          "internalType": "uint256",
          "name": "_toTokenId",
          "type": "uint256"
        }
      ],
      "name": "BatchMetadataUpdate",
      "type": "event"
    },
    {
      "anonymous": false,
      "inputs": [
        {
          "indexed": true,
          "internalType": "address",
          "name": "to",
          "type": "address"
        },
        {
          "indexed": true,
          "internalType": "uint256",
          "name": "tokenId",
          "type": "uint256"
        },
        {
          "indexed": false,
          "internalType": "uint256",
          "name": "creditAmount",
          "type": "uint256"
        },
        {
          "indexed": false,
          "internalType": "string",
          "name": "tokenURI",
          "type": "string"
        }
      ],
      "name": "CarbonCreditMinted",
      "type": "event"
    },
    {
      "anonymous": false,
      "inputs": [
        {
          "indexed": true,
          "internalType": "uint256",
          "name": "tokenId",
          "type": "uint256"
        },
        {
          "indexed": true,
          "internalType": "address",
          "name": "seller",
          "type": "address"
        }
      ],
      "name": "ListingCancelled",
      "type": "event"
    },
    {
      "anonymous": false,
      "inputs": [
        {
          "indexed": false,
          "internalType": "uint256",
          "name": "_tokenId",
          "type": "uint256"
        }
      ],
      "name": "MetadataUpdate",
      "type": "event"
    },
    {
      "anonymous": false,
      "inputs": [
        {
          "indexed": true,
          "internalType": "address",
          "name": "previousOwner",
          "type": "address"
        },
        {
          "indexed": true,
          "internalType": "address",
          "name": "newOwner",
          "type": "address"
        }
      ],
      "name": "OwnershipTransferred",
      "type": "event"
    },
    {
      "anonymous": false,
      "inputs": [
        {
          "indexed": true,
          "internalType": "uint256",
          "name": "tokenId",
          "type": "uint256"
        },
        {
          "indexed": true,
          "internalType": "address",
          "name": "seller",
          "type": "address"
        },
        {
          "indexed": false,
          "internalType": "uint256",
          "name": "price",
          "type": "uint256"
        }
      ],
      "name": "TokenListed",
      "type": "event"
    },
    {
      "anonymous": false,
      "inputs": [
        {
          "indexed": true,
          "internalType": "uint256",
          "name": "tokenId",
          "type": "uint256"
        },
        {
          "indexed": true,
          "internalType": "address",
          "name": "seller",
          "type": "address"
        },
        {
          "indexed": true,
          "internalType": "address",
          "name": "buyer",
          "type": "address"
        },
        {
          "indexed": false,
          "internalType": "uint256",
          "name": "price",
          "type": "uint256"
        },
        {
          "indexed": false,
          "internalType": "uint256",
          "name": "fee",
          "type": "uint256"
        }
      ],
      "name": "TokenSold",
      "type": "event"
    },
    {
      "anonymous": false,
      "inputs": [
        {
          "indexed": true,
          "internalType": "address",
          "name": "from",
          "type": "address"
        },
        {
          "indexed": true,
          "internalType": "address",
          "name": "to",
          "type": "address"
        },
        {
          "indexed": true,
          "internalType": "uint256",
          "name": "tokenId",
          "type": "uint256"
        }
      ],
      "name": "Transfer",
      "type": "event"
    },
    {
      "anonymous": false,
      "inputs": [
        {
          "indexed": true,
          "internalType": "address",
          "name": "newTreasury",
          "type": "address"
        }
      ],
      "name": "TreasuryUpdated",
      "type": "event"
    },
    {
      "inputs": [],
      "name": "BPS_DENOMINATOR",
      "outputs": [
        {
          "internalType": "uint256",
          "name": "",
          "type": "uint256"
        }
      ],
      "stateMutability": "view",
      "type": "function"
    },
    {
      "inputs": [],
      "name": "FEE_BPS",
      "outputs": [
        {
          "internalType": "uint256",
          "name": "",
          "type": "uint256"
        }
      ],
      "stateMutability": "view",
      "type": "function"
    },
    {
      "inputs": [
        {
          "internalType": "address",
          "name": "to",
          "type": "address"
        },
        {
          "internalType": "uint256",
          "name": "tokenId",
          "type": "uint256"
        }
      ],
      "name": "approve",
      "outputs": [],
      "stateMutability": "nonpayable",
      "type": "function"
    },
    {
      "inputs": [],
      "name": "authorizedBackendAddress",
      "outputs": [
        {
          "internalType": "address",
          "name": "",
          "type": "address"
        }
      ],
      "stateMutability": "view",
      "type": "function"
    },
    {
      "inputs": [
        {
          "internalType": "address",
          "name": "owner",
          "type": "address"
        }
      ],
      "name": "balanceOf",
      "outputs": [
        {
          "internalType": "uint256",
          "name": "",
          "type": "uint256"
        }
      ],
      "stateMutability": "view",
      "type": "function"
    },
    {
      "inputs": [
        {
          "internalType": "uint256",
          "name": "tokenId",
          "type": "uint256"
        }
      ],
      "name": "buy",
      "outputs": [],
      "stateMutability": "payable",
      "type": "function"
    },
    {
      "inputs": [
        {
          "internalType": "uint256",
          "name": "tokenId",
          "type": "uint256"
        }
      ],
      "name": "cancelListing",
      "outputs": [],
      "stateMutability": "nonpayable",
      "type": "function"
    },
    {
      "inputs": [
        {
          "internalType": "uint256",
          "name": "tokenId",
          "type": "uint256"
        }
      ],
      "name": "getApproved",
      "outputs": [
        {
          "internalType": "address",
          "name": "",
          "type": "address"
        }
      ],
      "stateMutability": "view",
      "type": "function"
    },
    {
      "inputs": [
        {
          "internalType": "uint256",
          "name": "tokenId",
          "type": "uint256"
        }
      ],
      "name": "getListing",
      "outputs": [
        {
          "components": [
            {
              "internalType": "address",
              "name": "seller",
              "type": "address"
            },
            {
              "internalType": "uint256",
              "name": "price",
              "type": "uint256"
            },
            {
              "internalType": "bool",
              "name": "active",
              "type": "bool"
            }
          ],
          "internalType": "struct AetherCarbon.Listing",
          "name": "",
          "type": "tuple"
        }
      ],
      "stateMutability": "view",
      "type": "function"
    },
    {
      "inputs": [
        {
          "internalType": "address",
          "name": "owner",
          "type": "address"
        },
        {
          "internalType": "address",
          "name": "operator",
          "type": "address"
        }
      ],
      "name": "isApprovedForAll",
      "outputs": [
        {
          "internalType": "bool",
          "name": "",
          "type": "bool"
        }
      ],
      "stateMutability": "view",
      "type": "function"
    },
    {
      "inputs": [
        {
          "internalType": "uint256",
          "name": "tokenId",
          "type": "uint256"
        },
        {
          "internalType": "uint256",
          "name": "price",
          "type": "uint256"
        }
      ],
      "name": "list",
      "outputs": [],
      "stateMutability": "nonpayable",
      "type": "function"
    },
    {
      "inputs": [
        {
          "internalType": "uint256",
          "name": "",
          "type": "uint256"
        }
      ],
      "name": "listings",
      "outputs": [
        {
          "internalType": "address",
          "name": "seller",
          "type": "address"
        },
        {
          "internalType": "uint256",
          "name": "price",
          "type": "uint256"
        },
        {
          "internalType": "bool",
          "name": "active",
          "type": "bool"
        }
      ],
      "stateMutability": "view",
      "type": "function"
    },
    {
      "inputs": [
        {
          "internalType": "uint256",
          "name": "creditAmount",
          "type": "uint256"
        },
        {
          "internalType": "string",
          "name": "species",
          "type": "string"
        },
        {
          "internalType": "string",
          "name": "imageIPFSHash",
          "type": "string"
        },
        {
          "internalType": "string",
          "name": "uri",
          "type": "string"
        },
        {
          "internalType": "bytes",
          "name": "signature",
          "type": "bytes"
        }
      ],
      "name": "mintWithSignature",
      "outputs": [],
      "stateMutability": "nonpayable",
      "type": "function"
    },
    {
      "inputs": [],
      "name": "name",
      "outputs": [
        {
          "internalType": "string",
          "name": "",
          "type": "string"
        }
      ],
      "stateMutability": "view",
      "type": "function"
    },
    {
      "inputs": [],
      "name": "owner",
      "outputs": [
        {
          "internalType": "address",
          "name": "",
          "type": "address"
        }
      ],
      "stateMutability": "view",
      "type": "function"
    },
    {
      "inputs": [
        {
          "internalType": "uint256",
          "name": "tokenId",
          "type": "uint256"
        }
      ],
      "name": "ownerOf",
      "outputs": [
        {
          "internalType": "address",
          "name": "",
          "type": "address"
        }
      ],
      "stateMutability": "view",
      "type": "function"
    },
    {
      "inputs": [],
      "name": "renounceOwnership",
      "outputs": [],
      "stateMutability": "nonpayable",
      "type": "function"
    },
    {
      "inputs": [
        {
          "internalType": "address",
          "name": "from",
          "type": "address"
        },
        {
          "internalType": "address",
          "name": "to",
          "type": "address"
        },
        {
          "internalType": "uint256",
          "name": "tokenId",
          "type": "uint256"
        }
      ],
      "name": "safeTransferFrom",
      "outputs": [],
      "stateMutability": "nonpayable",
      "type": "function"
    },
    {
      "inputs": [
        {
          "internalType": "address",
          "name": "from",
          "type": "address"
        },
        {
          "internalType": "address",
          "name": "to",
          "type": "address"
        },
        {
          "internalType": "uint256",
          "name": "tokenId",
          "type": "uint256"
        },
        {
          "internalType": "bytes",
          "name": "data",
          "type": "bytes"
        }
      ],
      "name": "safeTransferFrom",
      "outputs": [],
      "stateMutability": "nonpayable",
      "type": "function"
    },
    {
      "inputs": [
        {
          "internalType": "address",
          "name": "operator",
          "type": "address"
        },
        {
          "internalType": "bool",
          "name": "approved",
          "type": "bool"
        }
      ],
      "name": "setApprovalForAll",
      "outputs": [],
      "stateMutability": "nonpayable",
      "type": "function"
    },
    {
      "inputs": [
        {
          "internalType": "address",
          "name": "newAddress",
          "type": "address"
        }
      ],
      "name": "setAuthorizedBackendAddress",
      "outputs": [],
      "stateMutability": "nonpayable",
      "type": "function"
    },
    {
      "inputs": [
        {
          "internalType": "address",
          "name": "newTreasury",
          "type": "address"
        }
      ],
      "name": "setTreasuryWallet",
      "outputs": [],
      "stateMutability": "nonpayable",
      "type": "function"
    },
    {
      "inputs": [
        {
          "internalType": "bytes4",
          "name": "interfaceId",
          "type": "bytes4"
        }
      ],
      "name": "supportsInterface",
      "outputs": [
        {
          "internalType": "bool",
          "name": "",
          "type": "bool"
        }
      ],
      "stateMutability": "view",
      "type": "function"
    },
    {
      "inputs": [],
      "name": "symbol",
      "outputs": [
        {
          "internalType": "string",
          "name": "",
          "type": "string"
        }
      ],
      "stateMutability": "view",
      "type": "function"
    },
    {
      "inputs": [
        {
          "internalType": "uint256",
          "name": "",
          "type": "uint256"
        }
      ],
      "name": "tokenCredits",
      "outputs": [
        {
          "internalType": "uint256",
          "name": "",
          "type": "uint256"
        }
      ],
      "stateMutability": "view",
      "type": "function"
    },
    {
      "inputs": [
        {
          "internalType": "uint256",
          "name": "tokenId",
          "type": "uint256"
        }
      ],
      "name": "tokenURI",
      "outputs": [
        {
          "internalType": "string",
          "name": "",
          "type": "string"
        }
      ],
      "stateMutability": "view",
      "type": "function"
    },
    {
      "inputs": [],
      "name": "totalMinted",
      "outputs": [
        {
          "internalType": "uint256",
          "name": "",
          "type": "uint256"
        }
      ],
      "stateMutability": "view",
      "type": "function"
    },
    {
      "inputs": [
        {
          "internalType": "uint256",
          "name": "tokenId",
          "type": "uint256"
        }
      ],
      "name": "tradeCredit",
      "outputs": [],
      "stateMutability": "payable",
      "type": "function"
    },
    {
      "inputs": [
        {
          "internalType": "address",
          "name": "from",
          "type": "address"
        },
        {
          "internalType": "address",
          "name": "to",
          "type": "address"
        },
        {
          "internalType": "uint256",
          "name": "tokenId",
          "type": "uint256"
        }
      ],
      "name": "transferFrom",
      "outputs": [],
      "stateMutability": "nonpayable",
      "type": "function"
    },
    {
      "inputs": [
        {
          "internalType": "address",
          "name": "newOwner",
          "type": "address"
        }
      ],
      "name": "transferOwnership",
      "outputs": [],
      "stateMutability": "nonpayable",
      "type": "function"
    },
    {
      "inputs": [],
      "name": "treasuryWallet",
      "outputs": [
        {
          "internalType": "address",
          "name": "",
          "type": "address"
        }
      ],
      "stateMutability": "view",
      "type": "function"
    },
    {
      "inputs": [
        {
          "internalType": "bytes32",
          "name": "",
          "type": "bytes32"
        }
      ],
      "name": "usedSignatures",
      "outputs": [
        {
          "internalType": "bool",
          "name": "",
          "type": "bool"
        }
      ],
      "stateMutability": "view",
      "type": "function"
    }
  ],
  "bytecode": "0x608060405234801562000010575f80fd5b5060405162002a7d38038062002a7d833981016040819052620000339162000257565b336040518060400160405280601481526020017f41657468657220436172626f6e20437265646974000000000000000000000000815250604051806040016040528060048152602001630828aa8960e31b815250815f90816200009791906200032b565b506001620000a682826200032b565b5050506001600160a01b038116620000d857604051631e4fbdf760e01b81525f60048201526024015b60405180910390fd5b620000e381620001ea565b5060017f9b779b17422d0df92223018b32b4d1fa46e071723d6817e2486d003becc55f00556001600160a01b038216620001605760405162461bcd60e51b815260206004820152601760248201527f496e76616c6964206261636b656e6420616464726573730000000000000000006044820152606401620000cf565b6001600160a01b038116620001b85760405162461bcd60e51b815260206004820152601860248201527f496e76616c6964207472656173757279206164647265737300000000000000006044820152606401620000cf565b600880546001600160a01b039384166001600160a01b03199182161790915560098054929093169116179055620003f7565b600780546001600160a01b038381166001600160a01b0319831681179093556040519116919082907f8be0079c531659141344cd1fd0a4f28419497f9722a3daafe3b4186f6b6457e0905f90a35050565b80516001600160a01b038116811462000252575f80fd5b919050565b5f806040838503121562000269575f80fd5b62000274836200023b565b915062000284602084016200023b565b90509250929050565b634e487b7160e01b5f52604160045260245ffd5b600181811c90821680620002b657607f821691505b602082108103620002d557634e487b7160e01b5f52602260045260245ffd5b50919050565b601f8211156200032657805f5260205f20601f840160051c81016020851015620003025750805b601f840160051c820191505b8181101562000323575f81556001016200030e565b50505b505050565b81516001600160401b038111156200034757620003476200028d565b6200035f81620003588454620002a1565b84620002db565b602080601f83116001811462000395575f84156200037d5750858301515b5f19600386901b1c1916600185901b178555620003ef565b5f85815260208120601f198616915b82811015620003c557888601518255948401946001909101908401620003a4565b5085821015620003e357878501515f19600388901b60f8161c191681555b505060018460011b0185555b505050505050565b61267880620004055f395ff3fe6080604052600436106101db575f3560e01c806395d89b41116100fd578063c87b56dd11610092578063e985e9c511610062578063e985e9c5146105fa578063f2fde38b14610619578063f978fd6114610638578063fdec0aca14610666575f80fd5b8063c87b56dd14610558578063d96a094a1461041e578063de74e57b14610577578063e1a45218146105e5575f80fd5b8063a61c3a75116100cd578063a61c3a75146104e7578063a8602fea14610506578063b88d4fde14610525578063bf333f2c14610544575f80fd5b806395d89b41146104815780639df58b7414610495578063a22cb465146104b4578063a2309ff8146104d3575f80fd5b806344868abf116101735780636b7b131d116101435780636b7b131d1461041e57806370a0823114610431578063715018a6146104505780638da5cb5b14610464575f80fd5b806344868abf146103885780634626402b146103c157806350fd7367146103e05780636352211e146103ff575f80fd5b8063107a274a116101ae578063107a274a1461028c57806323b872dd1461032b578063305a67a81461034a57806342842e0e14610369575f80fd5b806301ffc9a7146101df57806306fdde0314610213578063081812fc14610234578063095ea7b31461026b575b5f80fd5b3480156101ea575f80fd5b506101fe6101f9366004611fbc565b610685565b60405190151581526020015b60405180910390f35b34801561021e575f80fd5b506102276106af565b60405161020a9190612024565b34801561023f575f80fd5b5061025361024e366004612036565b61073e565b6040516001600160a01b03909116815260200161020a565b348015610276575f80fd5b5061028a610285366004612068565b610765565b005b348015610297575f80fd5b506102fe6102a6366004612036565b60408051606080820183525f8083526020808401829052928401819052938452600d8252928290208251938401835280546001600160a01b031684526001810154918401919091526002015460ff1615159082015290565b6040805182516001600160a01b03168152602080840151908201529181015115159082015260600161020a565b348015610336575f80fd5b5061028a610345366004612090565b610774565b348015610355575f80fd5b5061028a610364366004612036565b610802565b348015610374575f80fd5b5061028a610383366004612090565b6108f5565b348015610393575f80fd5b506103b36103a2366004612036565b600b6020525f908152604090205481565b60405190815260200161020a565b3480156103cc575f80fd5b50600954610253906001600160a01b031681565b3480156103eb575f80fd5b5061028a6103fa3660046120c9565b610914565b34801561040a575f80fd5b50610253610419366004612036565b610ac0565b61028a61042c366004612036565b610aca565b34801561043c575f80fd5b506103b361044b3660046120e9565b610ad6565b34801561045b575f80fd5b5061028a610b1b565b34801561046f575f80fd5b506007546001600160a01b0316610253565b34801561048c575f80fd5b50610227610b2e565b3480156104a0575f80fd5b50600854610253906001600160a01b031681565b3480156104bf575f80fd5b5061028a6104ce366004612102565b610b3d565b3480156104de575f80fd5b50600a546103b3565b3480156104f2575f80fd5b5061028a6105013660046120e9565b610b48565b348015610511575f80fd5b5061028a6105203660046120e9565b610be1565b348015610530575f80fd5b5061028a61053f36600461214f565b610c7a565b34801561054f575f80fd5b506103b360fa81565b348015610563575f80fd5b50610227610572366004612036565b610c92565b348015610582575f80fd5b506105be610591366004612036565b600d6020525f90815260409020805460018201546002909201546001600160a01b03909116919060ff1683565b604080516001600160a01b039094168452602084019290925215159082015260600161020a565b3480156105f0575f80fd5b506103b361271081565b348015610605575f80fd5b506101fe610614366004612224565b610d13565b348015610624575f80fd5b5061028a6106333660046120e9565b610d40565b348015610643575f80fd5b506101fe610652366004612036565b600c6020525f908152604090205460ff1681565b348015610671575f80fd5b5061028a61068036600461229a565b610d7a565b5f6001600160e01b03198216632483248360e11b14806106a957506106a982611026565b92915050565b60605f80546106bd90612360565b80601f01602080910402602001604051908101604052809291908181526020018280546106e990612360565b80156107345780601f1061070b57610100808354040283529160200191610734565b820191905f5260205f20905b81548152906001019060200180831161071757829003601f168201915b5050505050905090565b5f61074882611075565b505f828152600460205260409020546001600160a01b03166106a9565b6107708282336110ad565b5050565b6001600160a01b0382166107a257604051633250574960e11b81525f60048201526024015b60405180910390fd5b5f6107ae8383336110ba565b9050836001600160a01b0316816001600160a01b0316146107fc576040516364283d7b60e01b81526001600160a01b0380861660048301526024820184905282166044820152606401610799565b50505050565b5f818152600d60205260409020546001600160a01b0316331461085b5760405162461bcd60e51b81526020600482015260116024820152702737ba103634b9ba34b7339037bbb732b960791b6044820152606401610799565b5f818152600d602052604090206002015460ff166108b05760405162461bcd60e51b81526020600482015260126024820152714c697374696e67206e6f742061637469766560701b6044820152606401610799565b5f818152600d6020526040808220600201805460ff1916905551339183917f8e25282255ab31897df2b0456bb993ac7f84d376861aefd84901d2d63a7428a29190a350565b61090f83838360405180602001604052805f815250610c7a565b505050565b3361091e83610ac0565b6001600160a01b0316146109665760405162461bcd60e51b815260206004820152600f60248201526e2737ba103a37b5b2b71037bbb732b960891b6044820152606401610799565b5f81116109a95760405162461bcd60e51b815260206004820152601160248201527005072696365206d757374206265203e203607c1b6044820152606401610799565b306109b38361073e565b6001600160a01b031614806109cd57506109cd3330610d13565b610a295760405162461bcd60e51b815260206004820152602760248201527f436f6e7472616374206e6f7420617070726f76656420746f207472616e73666560448201526639103a37b5b2b760c91b6064820152608401610799565b6040805160608101825233808252602080830185815260018486018181525f898152600d8552879020955186546001600160a01b0319166001600160a01b03909116178655915190850155516002909301805460ff191693151593909317909255915183815284917f7765a1c07bdce3390c521eaeb86030b188b77cbaba2d76bd7c9c32d906bfbcba910160405180910390a35050565b5f6106a982611075565b610ad3816111ac565b50565b5f6001600160a01b038216610b00576040516322718ad960e21b81525f6004820152602401610799565b506001600160a01b03165f9081526003602052604090205490565b610b23611532565b610b2c5f61155f565b565b6060600180546106bd90612360565b6107703383836115b0565b610b50611532565b6001600160a01b038116610b985760405162461bcd60e51b815260206004820152600f60248201526e496e76616c6964206164647265737360881b6044820152606401610799565b600880546001600160a01b0319166001600160a01b0383169081179091556040517fb97001e69625c6f8b654437578af8125e5559ff8785e7532bb05b35f46a6a6e3905f90a250565b610be9611532565b6001600160a01b038116610c315760405162461bcd60e51b815260206004820152600f60248201526e496e76616c6964206164647265737360881b6044820152606401610799565b600980546001600160a01b0319166001600160a01b0383169081179091556040517f7dae230f18360d76a040c81f050aa14eb9d6dc7901b20fc5d855e2a20fe814d1905f90a250565b610c85848484610774565b6107fc3385858585611677565b6060610c9d82611075565b505f610cb360408051602081019091525f815290565b90505f610cbf8461179f565b905081515f03610cd0579392505050565b805115610d02578181604051602001610cea929190612398565b60405160208183030381529060405292505050919050565b610d0b8461183e565b949350505050565b6001600160a01b039182165f90815260056020908152604080832093909416825291909152205460ff1690565b610d48611532565b6001600160a01b038116610d7157604051631e4fbdf760e01b81525f6004820152602401610799565b610ad38161155f565b610d826118af565b5f8911610dd15760405162461bcd60e51b815260206004820152601960248201527f43726564697420616d6f756e74206d757374206265203e2030000000000000006044820152606401610799565b5f338a8a8a8a8a604051602001610ded969594939291906123c6565b60408051601f1981840301815291815281516020928301205f818152600c90935291205490915060ff1615610e5d5760405162461bcd60e51b815260206004820152601660248201527514da59db985d1d5c9948185b1c9958591e481d5cd95960521b6044820152606401610799565b7f19457468657265756d205369676e6564204d6573736167653a0a3332000000005f908152601c829052603c812090505f610ecf85858080601f0160208091040260200160405190810160405280939291908181526020018383808284375f9201919091525086939250506118ca9050565b6008549091506001600160a01b03808316911614610f2f5760405162461bcd60e51b815260206004820152601b60248201527f496e76616c6964204149207369676e6572207369676e617475726500000000006044820152606401610799565b5f838152600c60205260408120805460ff19166001179055600a80549082610f5683612421565b919050559050610f6633826118f2565b610fa58189898080601f0160208091040260200160405190810160405280939291908181526020018383808284375f9201919091525061190b92505050565b8c600b5f8381526020019081526020015f208190555080336001600160a01b03167fcab8efc0b7b36a46dd4f0af35d648c21213268c21e1f2c554f2005603568a4b28f8b8b604051610ff993929190612439565b60405180910390a35050505061101b60015f8051602061262383398151915255565b505050505050505050565b5f6001600160e01b031982166380ac58cd60e01b148061105657506001600160e01b03198216635b5e139f60e01b145b806106a957506301ffc9a760e01b6001600160e01b03198316146106a9565b5f818152600260205260408120546001600160a01b0316806106a957604051637e27328960e01b815260048101849052602401610799565b61090f838383600161195a565b5f828152600260205260408120546001600160a01b03908116908316156110e6576110e6818486611a5e565b6001600160a01b03811615611120576111015f855f8061195a565b6001600160a01b0381165f90815260036020526040902080545f190190555b6001600160a01b0385161561114e576001600160a01b0385165f908152600360205260409020805460010190555b5f8481526002602052604080822080546001600160a01b0319166001600160a01b0389811691821790925591518793918516917fddf252ad1be2c89b69c2b068fc378daa952ba7f163c4a11628f55a4df523b3ef91a4949350505050565b6111b46118af565b5f818152600d60205260409020600281015460ff166112155760405162461bcd60e51b815260206004820152601960248201527f546f6b656e206e6f74206c697374656420666f722073616c65000000000000006044820152606401610799565b80600101543410156112605760405162461bcd60e51b8152602060048201526014602482015273125b9cdd59999a58da595b9d081c185e5b595b9d60621b6044820152606401610799565b80546001600160a01b031633036112b95760405162461bcd60e51b815260206004820152601b60248201527f43616e6e6f742062757920796f7572206f776e206c697374696e6700000000006044820152606401610799565b8054600182015460028301805460ff191690556001600160a01b03909116905f6127106112e760fa8461246e565b6112f19190612485565b90505f6112fe82846124a4565b905061130b843388611ac2565b6009546040515f916001600160a01b03169084908381818185875af1925050503d805f8114611355576040519150601f19603f3d011682016040523d82523d5f602084013e61135a565b606091505b50509050806113a15760405162461bcd60e51b8152602060048201526013602482015272119959481d1c985b9cd9995c8819985a5b1959606a1b6044820152606401610799565b5f856001600160a01b0316836040515f6040518083038185875af1925050503d805f81146113ea576040519150601f19603f3d011682016040523d82523d5f602084013e6113ef565b606091505b50509050806114385760405162461bcd60e51b815260206004820152601560248201527414d95b1b195c881c185e5b595b9d0819985a5b1959605a1b6044820152606401610799565b843411156114cd575f3361144c87346124a4565b6040515f81818185875af1925050503d805f8114611485576040519150601f19603f3d011682016040523d82523d5f602084013e61148a565b606091505b50509050806114cb5760405162461bcd60e51b815260206004820152600d60248201526c1499599d5b990819985a5b1959609a1b6044820152606401610799565b505b604080518681526020810186905233916001600160a01b038916918b917fa831d161ab34fd077c450edfeeac91cd8cc4e1d8a3b07930cf05bf9c0a23d83e910160405180910390a450505050505050610ad360015f8051602061262383398151915255565b6007546001600160a01b03163314610b2c5760405163118cdaa760e01b8152336004820152602401610799565b600780546001600160a01b038381166001600160a01b0319831681179093556040519116919082907f8be0079c531659141344cd1fd0a4f28419497f9722a3daafe3b4186f6b6457e0905f90a35050565b6001600160a01b0383166115d95760405163a9fbf51f60e01b81525f6004820152602401610799565b6001600160a01b03821661160b57604051630b61174360e31b81526001600160a01b0383166004820152602401610799565b6001600160a01b038381165f81815260056020908152604080832094871680845294825291829020805460ff191686151590811790915591519182527f17307eab39ab6107e8899845ad3d59bd9653f200f220920489ca2b5937696c31910160405180910390a3505050565b6001600160a01b0383163b1561179857604051630a85bd0160e11b81526001600160a01b0384169063150b7a02906116b99088908890879087906004016124b7565b6020604051808303815f875af19250505080156116f3575060408051601f3d908101601f191682019092526116f0918101906124f3565b60015b61175a573d808015611720576040519150601f19603f3d011682016040523d82523d5f602084013e611725565b606091505b5080515f0361175257604051633250574960e11b81526001600160a01b0385166004820152602401610799565b805160208201fd5b6001600160e01b03198116630a85bd0160e11b1461179657604051633250574960e11b81526001600160a01b0385166004820152602401610799565b505b5050505050565b5f8181526006602052604090208054606091906117bb90612360565b80601f01602080910402602001604051908101604052809291908181526020018280546117e790612360565b80156118325780601f1061180957610100808354040283529160200191611832565b820191905f5260205f20905b81548152906001019060200180831161181557829003601f168201915b50505050509050919050565b606061184982611075565b505f61185f60408051602081019091525f815290565b90505f81511161187d5760405180602001604052805f8152506118a8565b8061188784611b6f565b604051602001611898929190612398565b6040516020818303038152906040525b9392505050565b6118b7611bff565b60025f8051602061262383398151915255565b5f805f806118d88686611c2e565b9250925092506118e88282611c77565b5090949350505050565b610770828260405180602001604052805f815250611d2f565b5f8281526006602052604090206119228282612552565b506040518281527ff8e1a15aba9398e019f0b49df1a4fde98ee17ae345cb5f6b5e2c27f5033e8ce79060200160405180910390a15050565b808061196e57506001600160a01b03821615155b15611a2f575f61197d84611075565b90506001600160a01b038316158015906119a95750826001600160a01b0316816001600160a01b031614155b80156119bc57506119ba8184610d13565b155b156119e55760405163a9fbf51f60e01b81526001600160a01b0384166004820152602401610799565b8115611a2d5783856001600160a01b0316826001600160a01b03167f8c5be1e5ebec7d5bd14f71427d1e84f3dd0314c0f7b2291e5b200ac8c7c3b92560405160405180910390a45b505b50505f90815260046020526040902080546001600160a01b0319166001600160a01b0392909216919091179055565b611a69838383611d46565b61090f576001600160a01b038316611a9757604051637e27328960e01b815260048101829052602401610799565b60405163177e802f60e01b81526001600160a01b038316600482015260248101829052604401610799565b6001600160a01b038216611aeb57604051633250574960e11b81525f6004820152602401610799565b5f611af783835f6110ba565b90506001600160a01b038116611b2357604051637e27328960e01b815260048101839052602401610799565b836001600160a01b0316816001600160a01b0316146107fc576040516364283d7b60e01b81526001600160a01b0380861660048301526024820184905282166044820152606401610799565b60605f611b7b83611da7565b60010190505f8167ffffffffffffffff811115611b9a57611b9a61213b565b6040519080825280601f01601f191660200182016040528015611bc4576020820181803683370190505b5090508181016020015b5f19016f181899199a1a9b1b9c1cb0b131b232b360811b600a86061a8153600a8504945084611bce57509392505050565b5f8051602061262383398151915254600203610b2c57604051633ee5aeb560e01b815260040160405180910390fd5b5f805f8351604103611c65576020840151604085015160608601515f1a611c5788828585611e7e565b955095509550505050611c70565b505081515f91506002905b9250925092565b5f826003811115611c8a57611c8a61260e565b03611c93575050565b6001826003811115611ca757611ca761260e565b03611cc55760405163f645eedf60e01b815260040160405180910390fd5b6002826003811115611cd957611cd961260e565b03611cfa5760405163fce698f760e01b815260048101829052602401610799565b6003826003811115611d0e57611d0e61260e565b03610770576040516335e2f38360e21b815260048101829052602401610799565b611d398383611f46565b61090f335f858585611677565b5f6001600160a01b03831615801590610d0b5750826001600160a01b0316846001600160a01b03161480611d7f5750611d7f8484610d13565b80610d0b5750505f908152600460205260409020546001600160a01b03908116911614919050565b5f8072184f03e93ff9f4daa797ed6e38ed64bf6a1f0160401b8310611de55772184f03e93ff9f4daa797ed6e38ed64bf6a1f0160401b830492506040015b6d04ee2d6d415b85acef81000000008310611e11576d04ee2d6d415b85acef8100000000830492506020015b662386f26fc100008310611e2f57662386f26fc10000830492506010015b6305f5e1008310611e47576305f5e100830492506008015b6127108310611e5b57612710830492506004015b60648310611e6d576064830492506002015b600a83106106a95760010192915050565b5f80807f7fffffffffffffffffffffffffffffff5d576e7357a4501ddfe92f46681b20a0841115611eb757505f91506003905082611f3c565b604080515f808252602082018084528a905260ff891692820192909252606081018790526080810186905260019060a0016020604051602081039080840390855afa158015611f08573d5f803e3d5ffd5b5050604051601f1901519150506001600160a01b038116611f3357505f925060019150829050611f3c565b92505f91508190505b9450945094915050565b6001600160a01b038216611f6f57604051633250574960e11b81525f6004820152602401610799565b5f611f7b83835f6110ba565b90506001600160a01b0381161561090f576040516339e3563760e11b81525f6004820152602401610799565b6001600160e01b031981168114610ad3575f80fd5b5f60208284031215611fcc575f80fd5b81356118a881611fa7565b5f5b83811015611ff1578181015183820152602001611fd9565b50505f910152565b5f8151808452612010816020860160208601611fd7565b601f01601f19169290920160200192915050565b602081525f6118a86020830184611ff9565b5f60208284031215612046575f80fd5b5035919050565b80356001600160a01b0381168114612063575f80fd5b919050565b5f8060408385031215612079575f80fd5b6120828361204d565b946020939093013593505050565b5f805f606084860312156120a2575f80fd5b6120ab8461204d565b92506120b96020850161204d565b9150604084013590509250925092565b5f80604083850312156120da575f80fd5b50508035926020909101359150565b5f602082840312156120f9575f80fd5b6118a88261204d565b5f8060408385031215612113575f80fd5b61211c8361204d565b915060208301358015158114612130575f80fd5b809150509250929050565b634e487b7160e01b5f52604160045260245ffd5b5f805f8060808587031215612162575f80fd5b61216b8561204d565b93506121796020860161204d565b925060408501359150606085013567ffffffffffffffff8082111561219c575f80fd5b818701915087601f8301126121af575f80fd5b8135818111156121c1576121c161213b565b604051601f8201601f19908116603f011681019083821181831017156121e9576121e961213b565b816040528281528a6020848701011115612201575f80fd5b826020860160208301375f60208483010152809550505050505092959194509250565b5f8060408385031215612235575f80fd5b61223e8361204d565b915061224c6020840161204d565b90509250929050565b5f8083601f840112612265575f80fd5b50813567ffffffffffffffff81111561227c575f80fd5b602083019150836020828501011115612293575f80fd5b9250929050565b5f805f805f805f805f60a08a8c0312156122b2575f80fd5b8935985060208a013567ffffffffffffffff808211156122d0575f80fd5b6122dc8d838e01612255565b909a50985060408c01359150808211156122f4575f80fd5b6123008d838e01612255565b909850965060608c0135915080821115612318575f80fd5b6123248d838e01612255565b909650945060808c013591508082111561233c575f80fd5b506123498c828d01612255565b915080935050809150509295985092959850929598565b600181811c9082168061237457607f821691505b60208210810361239257634e487b7160e01b5f52602260045260245ffd5b50919050565b5f83516123a9818460208801611fd7565b8351908301906123bd818360208801611fd7565b01949350505050565b6bffffffffffffffffffffffff198760601b168152856014820152838560348301375f848201603481015f815284868237505f930160340192835250909695505050505050565b634e487b7160e01b5f52601160045260245ffd5b5f600182016124325761243261240d565b5060010190565b83815260406020820152816040820152818360608301375f818301606090810191909152601f909201601f1916010192915050565b80820281158282048414176106a9576106a961240d565b5f8261249f57634e487b7160e01b5f52601260045260245ffd5b500490565b818103818111156106a9576106a961240d565b6001600160a01b03858116825284166020820152604081018390526080606082018190525f906124e990830184611ff9565b9695505050505050565b5f60208284031215612503575f80fd5b81516118a881611fa7565b601f82111561090f57805f5260205f20601f840160051c810160208510156125335750805b601f840160051c820191505b81811015611798575f815560010161253f565b815167ffffffffffffffff81111561256c5761256c61213b565b6125808161257a8454612360565b8461250e565b602080601f8311600181146125b3575f841561259c5750858301515b5f19600386901b1c1916600185901b178555611796565b5f85815260208120601f198616915b828110156125e1578886015182559484019460019091019084016125c2565b50858210156125fe57878501515f19600388901b60f8161c191681555b5050505050600190811b01905550565b634e487b7160e01b5f52602160045260245ffdfe9b779b17422d0df92223018b32b4d1fa46e071723d6817e2486d003becc55f00a2646970667358221220afda4d5a80106eeebf71ca3bca372ed37a7c7eab90462d751a103bdd72e834a564736f6c63430008180033",
  "linkReferences": {},
  "deployedLinkReferences": {}
}