{
  "_format": "hh-sol-artifact-1",
  "contractName": "AetherCarbon",
  "sourceName": "contracts/AetherCarbon.sol",
  "abi": [
    {
      "inputs": [
        {
          "internalType": "address",
          "name": "_authorizedBackendAddress",
          "type": "address"
        },
        {
          "internalType": "address",
          "name": "_treasuryWallet",
          "type": "address"
        }
      ],
      "stateMutability": "nonpayable",
      "type": "constructor"
    },
    {
      "inputs": [],
      "name": "ECDSAInvalidSignature",
      "type": "error"
    },
    {
      "inputs": [
        {
          "internalType": "uint256",
          "name": "length",
          "type": "uint256"
        }
      ],
      "name": "ECDSAInvalidSignatureLength",
      "type": "error"
    },
    {
      "inputs": [
        {
          "internalType": "bytes32",
          "name": "s",
          "type": "bytes32"
        }
      ],
      "name": "ECDSAInvalidSignatureS",
      "type": "error"
    },
    {
      "inputs": [
        {
          "internalType": "address",
          "name": "sender",
          "type": "address"
        },
        {
          "internalType": "uint256",
          "name": "tokenId",
          "type": "uint256"
        },
        {
          "internalType": "address",
          "name": "owner",
          "type": "address"
        }
      ],
      "name": "ERC721IncorrectOwner",
      "type": "error"
    },
    {
      "inputs": [
        {
          "internalType": "address",
          "name": "operator",
          "type": "address"
        },
        {
          "internalType": "uint256",
          "name": "tokenId",
          "type": "uint256"
        }
      ],
      "name": "ERC721InsufficientApproval",
      "type": "error"
    },
    {
      "inputs": [
        {
          "internalType": "address",
          "name": "approver",
          "type": "address"
        }
      ],
      "name": "ERC721InvalidApprover",
      "type": "error"
    },
    {
      "inputs": [
        {
          "internalType": "address",
          "name": "operator",
          "type": "address"
        }
      ],
      "name": "ERC721InvalidOperator",
      "type": "error"
    },
    {
      "inputs": [
        {
          "internalType": "address",
          "name": "owner",
          "type": "address"
        }
      ],
      "name": "ERC721InvalidOwner",
      "type": "error"
    },
    {
      "inputs": [
        {
          "internalType": "address",
          "name": "receiver",
          "type": "address"
        }
      ],
      "name": "ERC721InvalidReceiver",
      "type": "error"
    },
    {
      "inputs": [
        {
          "internalType": "address",
          "name": "sender",
          "type": "address"
        }
      ],
      "name": "ERC721InvalidSender",
      "type": "error"
    },
    {
      "inputs": [
        {
          "internalType": "uint256",
          "name": "tokenId",
          "type": "uint256"
        }
      ],
      "name": "ERC721NonexistentToken",
      "type": "error"
    },
    {
      "inputs": [
        {
          "internalType": "address",
          "name": "owner",
          "type": "address"
        }
      ],
      "name": "OwnableInvalidOwner",
      "type": "error"
    },
    {
      "inputs": [
        {
          "internalType": "address",
          "name": "account",
          "type": "address"
        }
      ],
      "name": "OwnableUnauthorizedAccount",
      "type": "error"
    },
    {
      "inputs": [],
      "name": "ReentrancyGuardReentrantCall",
      "type": "error"
    },
    {
      "anonymous": false,
      "inputs": [
        {
          "indexed": true,
          "internalType": "address",
          "name": "owner",
          "type": "address"
        },
        {
          "indexed": true,
          "internalType": "address",
          "name": "approved",
          "type": "address"
        },
        {
          "indexed": true,
          "internalType": "uint256",
          "name": "tokenId",
          "type": "uint256"
        }
      ],
      "name": "Approval",
      "type": "event"
    },
    {
      "anonymous": false,
      "inputs": [
        {
          "indexed": true,
          "internalType": "address",
          "name": "owner",
          "type": "address"
        },
        {
          "indexed": true,
          "internalType": "address",
          "name": "operator",
          "type": "address"
        },
        {
          "indexed": false,
          "internalType": "bool",
          "name": "approved",
          "type": "bool"
        }
      ],
      "name": "ApprovalForAll",
      "type": "event"
    },
    {
      "anonymous": false,
      "inputs": [
        {
          "indexed": true,
          "internalType": "address",
          "name": "newAddress",
          "type": "address"
        }
      ],
      "name": "BackendAddressUpdated",
      "type": "event"
    },
    {
      "anonymous": false,
      "inputs": [
        {
          "indexed": false,
          "internalType": "uint256",
          "name": "_fromTokenId",
          "type": "uint256"
        },
        {
          "indexed": false,
          "internalType": "uint256",
          "name": "_toTokenId",
          "type": "uint256"
        }
      ],
      "name": "BatchMetadataUpdate",
      "type": "event"
    },
    {
      "anonymous": false,
      "inputs": [
        {
          "indexed": true,
          "internalType": "address",
          "name": "to",
          "type": "address"
        },
        {
          "indexed": true,
          "internalType": "uint256",
          "name": "tokenId",
          "type": "uint256"
        },
        {
          "indexed": false,
          "internalType": "uint256",
          "name": "creditAmount",
          "type": "uint256"
        },
        {
          "indexed": false,
          "internalType": "string",
          "name": "tokenURI",
          "type": "string"
        }
      ],
      "name": "CarbonCreditMinted",
      "type": "event"
    },
    {
      "anonymous": false,
      "inputs": [
        {
          "indexed": true,
          "internalType": "uint256",
          "name": "tokenId",
          "type": "uint256"
        },
        {
          "indexed": false,
          "internalType": "uint256",
          "name": "newCreditAmount",
          "type": "uint256"
        },
        {
          "indexed": false,
          "internalType": "string",
          "name": "newUri",
          "type": "string"
        }
      ],
      "name": "CreditGrowthUpdated",
      "type": "event"
    },
    {
      "anonymous": false,
      "inputs": [
        {
          "indexed": true,
          "internalType": "uint256",
          "name": "tokenId",
          "type": "uint256"
        },
        {
          "indexed": true,
          "internalType": "address",
          "name": "seller",
          "type": "address"
        }
      ],
      "name": "ListingCancelled",
      "type": "event"
    },
    {
      "anonymous": false,
      "inputs": [
        {
          "indexed": false,
          "internalType": "uint256",
          "name": "_tokenId",
          "type": "uint256"
        }
      ],
      "name": "MetadataUpdate",
      "type": "event"
    },
    {
      "anonymous": false,
      "inputs": [
        {
          "indexed": true,
          "internalType": "address",
          "name": "previousOwner",
          "type": "address"
        },
        {
          "indexed": true,
          "internalType": "address",
          "name": "newOwner",
          "type": "address"
        }
      ],
      "name": "OwnershipTransferred",
      "type": "event"
    },
    {
      "anonymous": false,
      "inputs": [
        {
          "indexed": true,
          "internalType": "uint256",
          "name": "tokenId",
          "type": "uint256"
        },
        {
          "indexed": true,
          "internalType": "address",
          "name": "seller",
          "type": "address"
        },
        {
          "indexed": false,
          "internalType": "uint256",
          "name": "price",
          "type": "uint256"
        }
      ],
      "name": "TokenListed",
      "type": "event"
    },
    {
      "anonymous": false,
      "inputs": [
        {
          "indexed": true,
          "internalType": "uint256",
          "name": "tokenId",
          "type": "uint256"
        },
        {
          "indexed": true,
          "internalType": "address",
          "name": "seller",
          "type": "address"
        },
        {
          "indexed": true,
          "internalType": "address",
          "name": "buyer",
          "type": "address"
        },
        {
          "indexed": false,
          "internalType": "uint256",
          "name": "price",
          "type": "uint256"
        },
        {
          "indexed": false,
          "internalType": "uint256",
          "name": "fee",
          "type": "uint256"
        }
      ],
      "name": "TokenSold",
      "type": "event"
    },
    {
      "anonymous": false,
      "inputs": [
        {
          "indexed": true,
          "internalType": "address",
          "name": "from",
          "type": "address"
        },
        {
          "indexed": true,
          "internalType": "address",
          "name": "to",
          "type": "address"
        },
        {
          "indexed": true,
          "internalType": "uint256",
          "name": "tokenId",
          "type": "uint256"
        }
      ],
      "name": "Transfer",
      "type": "event"
    },
    {
      "anonymous": false,
      "inputs": [
        {
          "indexed": true,
          "internalType": "address",
          "name": "newTreasury",
          "type": "address"
        }
      ],
      "name": "TreasuryUpdated",
      "type": "event"
    },
    {
      "inputs": [],
      "name": "BPS_DENOMINATOR",
      "outputs": [
        {
          "internalType": "uint256",
          "name": "",
          "type": "uint256"
        }
      ],
      "stateMutability": "view",
      "type": "function"
    },
    {
      "inputs": [],
      "name": "FEE_BPS",
      "outputs": [
        {
          "internalType": "uint256",
          "name": "",
          "type": "uint256"
        }
      ],
      "stateMutability": "view",
      "type": "function"
    },
    {
      "inputs": [
        {
          "internalType": "address",
          "name": "to",
          "type": "address"
        },
        {
          "internalType": "uint256",
          "name": "tokenId",
          "type": "uint256"
        }
      ],
      "name": "approve",
      "outputs": [],
      "stateMutability": "nonpayable",
      "type": "function"
    },
    {
      "inputs": [],
      "name": "authorizedBackendAddress",
      "outputs": [
        {
          "internalType": "address",
          "name": "",
          "type": "address"
        }
      ],
      "stateMutability": "view",
      "type": "function"
    },
    {
      "inputs": [
        {
          "internalType": "address",
          "name": "owner",
          "type": "address"
        }
      ],
      "name": "balanceOf",
      "outputs": [
        {
          "internalType": "uint256",
          "name": "",
          "type": "uint256"
        }
      ],
      "stateMutability": "view",
      "type": "function"
    },
    {
      "inputs": [
        {
          "internalType": "uint256",
          "name": "tokenId",
          "type": "uint256"
        }
      ],
      "name": "buy",
      "outputs": [],
      "stateMutability": "payable",
      "type": "function"
    },
    {
      "inputs": [
        {
          "internalType": "uint256",
          "name": "tokenId",
          "type": "uint256"
        }
      ],
      "name": "cancelListing",
      "outputs": [],
      "stateMutability": "nonpayable",
      "type": "function"
    },
    {
      "inputs": [
        {
          "internalType": "uint256",
          "name": "tokenId",
          "type": "uint256"
        }
      ],
      "name": "getApproved",
      "outputs": [
        {
          "internalType": "address",
          "name": "",
          "type": "address"
        }
      ],
      "stateMutability": "view",
      "type": "function"
    },
    {
      "inputs": [
        {
          "internalType": "uint256",
          "name": "tokenId",
          "type": "uint256"
        }
      ],
      "name": "getListing",
      "outputs": [
        {
          "components": [
            {
              "internalType": "address",
              "name": "seller",
              "type": "address"
            },
            {
              "internalType": "uint256",
              "name": "price",
              "type": "uint256"
            },
            {
              "internalType": "bool",
              "name": "active",
              "type": "bool"
            }
          ],
          "internalType": "struct AetherCarbon.Listing",
          "name": "",
          "type": "tuple"
        }
      ],
      "stateMutability": "view",
      "type": "function"
    },
    {
      "inputs": [
        {
          "internalType": "address",
          "name": "owner",
          "type": "address"
        },
        {
          "internalType": "address",
          "name": "operator",
          "type": "address"
        }
      ],
      "name": "isApprovedForAll",
      "outputs": [
        {
          "internalType": "bool",
          "name": "",
          "type": "bool"
        }
      ],
      "stateMutability": "view",
      "type": "function"
    },
    {
      "inputs": [
        {
          "internalType": "uint256",
          "name": "tokenId",
          "type": "uint256"
        },
        {
          "internalType": "uint256",
          "name": "price",
          "type": "uint256"
        }
      ],
      "name": "list",
      "outputs": [],
      "stateMutability": "nonpayable",
      "type": "function"
    },
    {
      "inputs": [
        {
          "internalType": "uint256",
          "name": "",
          "type": "uint256"
        }
      ],
      "name": "listings",
      "outputs": [
        {
          "internalType": "address",
          "name": "seller",
          "type": "address"
        },
        {
          "internalType": "uint256",
          "name": "price",
          "type": "uint256"
        },
        {
          "internalType": "bool",
          "name": "active",
          "type": "bool"
        }
      ],
      "stateMutability": "view",
      "type": "function"
    },
    {
      "inputs": [
        {
          "internalType": "uint256",
          "name": "creditAmount",
          "type": "uint256"
        },
        {
          "internalType": "string",
          "name": "species",
          "type": "string"
        },
        {
          "internalType": "string",
          "name": "imageIPFSHash",
          "type": "string"
        },
        {
          "internalType": "string",
          "name": "uri",
          "type": "string"
        },
        {
          "internalType": "bytes",
          "name": "signature",
          "type": "bytes"
        }
      ],
      "name": "mintWithSignature",
      "outputs": [],
      "stateMutability": "nonpayable",
      "type": "function"
    },
    {
      "inputs": [],
      "name": "name",
      "outputs": [
        {
          "internalType": "string",
          "name": "",
          "type": "string"
        }
      ],
      "stateMutability": "view",
      "type": "function"
    },
    {
      "inputs": [],
      "name": "owner",
      "outputs": [
        {
          "internalType": "address",
          "name": "",
          "type": "address"
        }
      ],
      "stateMutability": "view",
      "type": "function"
    },
    {
      "inputs": [
        {
          "internalType": "uint256",
          "name": "tokenId",
          "type": "uint256"
        }
      ],
      "name": "ownerOf",
      "outputs": [
        {
          "internalType": "address",
          "name": "",
          "type": "address"
        }
      ],
      "stateMutability": "view",
      "type": "function"
    },
    {
      "inputs": [],
      "name": "renounceOwnership",
      "outputs": [],
      "stateMutability": "nonpayable",
      "type": "function"
    },
    {
      "inputs": [
        {
          "internalType": "address",
          "name": "from",
          "type": "address"
        },
        {
          "internalType": "address",
          "name": "to",
          "type": "address"
        },
        {
          "internalType": "uint256",
          "name": "tokenId",
          "type": "uint256"
        }
      ],
      "name": "safeTransferFrom",
      "outputs": [],
      "stateMutability": "nonpayable",
      "type": "function"
    },
    {
      "inputs": [
        {
          "internalType": "address",
          "name": "from",
          "type": "address"
        },
        {
          "internalType": "address",
          "name": "to",
          "type": "address"
        },
        {
          "internalType": "uint256",
          "name": "tokenId",
          "type": "uint256"
        },
        {
          "internalType": "bytes",
          "name": "data",
          "type": "bytes"
        }
      ],
      "name": "safeTransferFrom",
      "outputs": [],
      "stateMutability": "nonpayable",
      "type": "function"
    },
    {
      "inputs": [
        {
          "internalType": "address",
          "name": "operator",
          "type": "address"
        },
        {
          "internalType": "bool",
          "name": "approved",
          "type": "bool"
        }
      ],
      "name": "setApprovalForAll",
      "outputs": [],
      "stateMutability": "nonpayable",
      "type": "function"
    },
    {
      "inputs": [
        {
          "internalType": "address",
          "name": "newAddress",
          "type": "address"
        }
      ],
      "name": "setAuthorizedBackendAddress",
      "outputs": [],
      "stateMutability": "nonpayable",
      "type": "function"
    },
    {
      "inputs": [
        {
          "internalType": "address",
          "name": "newTreasury",
          "type": "address"
        }
      ],
      "name": "setTreasuryWallet",
      "outputs": [],
      "stateMutability": "nonpayable",
      "type": "function"
    },
    {
      "inputs": [
        {
          "internalType": "bytes4",
          "name": "interfaceId",
          "type": "bytes4"
        }
      ],
      "name": "supportsInterface",
      "outputs": [
        {
          "internalType": "bool",
          "name": "",
          "type": "bool"
        }
      ],
      "stateMutability": "view",
      "type": "function"
    },
    {
      "inputs": [],
      "name": "symbol",
      "outputs": [
        {
          "internalType": "string",
          "name": "",
          "type": "string"
        }
      ],
      "stateMutability": "view",
      "type": "function"
    },
    {
      "inputs": [
        {
          "internalType": "uint256",
          "name": "",
          "type": "uint256"
        }
      ],
      "name": "tokenCredits",
      "outputs": [
        {
          "internalType": "uint256",
          "name": "",
          "type": "uint256"
        }
      ],
      "stateMutability": "view",
      "type": "function"
    },
    {
      "inputs": [
        {
          "internalType": "uint256",
          "name": "tokenId",
          "type": "uint256"
        }
      ],
      "name": "tokenURI",
      "outputs": [
        {
          "internalType": "string",
          "name": "",
          "type": "string"
        }
      ],
      "stateMutability": "view",
      "type": "function"
    },
    {
      "inputs": [],
      "name": "totalMinted",
      "outputs": [
        {
          "internalType": "uint256",
          "name": "",
          "type": "uint256"
        }
      ],
      "stateMutability": "view",
      "type": "function"
    },
    {
      "inputs": [
        {
          "internalType": "uint256",
          "name": "tokenId",
          "type": "uint256"
        }
      ],
      "name": "tradeCredit",
      "outputs": [],
      "stateMutability": "payable",
      "type": "function"
    },
    {
      "inputs": [
        {
          "internalType": "address",
          "name": "from",
          "type": "address"
        },
        {
          "internalType": "address",
          "name": "to",
          "type": "address"
        },
        {
          "internalType": "uint256",
          "name": "tokenId",
          "type": "uint256"
        }
      ],
      "name": "transferFrom",
      "outputs": [],
      "stateMutability": "nonpayable",
      "type": "function"
    },
    {
      "inputs": [
        {
          "internalType": "address",
          "name": "newOwner",
          "type": "address"
        }
      ],
      "name": "transferOwnership",
      "outputs": [],
      "stateMutability": "nonpayable",
      "type": "function"
    },
    {
      "inputs": [],
      "name": "treasuryWallet",
      "outputs": [
        {
          "internalType": "address",
          "name": "",
          "type": "address"
        }
      ],
      "stateMutability": "view",
      "type": "function"
    },
    {
      "inputs": [
        {
          "internalType": "uint256",
          "name": "tokenId",
          "type": "uint256"
        },
        {
          "internalType": "uint256",
          "name": "additionalCredits",
          "type": "uint256"
        },
        {
          "internalType": "string",
          "name": "newUri",
          "type": "string"
        }
      ],
      "name": "updateCreditGrowth",
      "outputs": [],
      "stateMutability": "nonpayable",
      "type": "function"
    },
    {
      "inputs": [
        {
          "internalType": "bytes32",
          "name": "",
          "type": "bytes32"
        }
      ],
      "name": "usedSignatures",
      "outputs": [
        {
          "internalType": "bool",
          "name": "",
          "type": "bool"
        }
      ],
      "stateMutability": "view",
      "type": "function"
    }
  ],
  "bytecode": "0x608060405234801562000010575f80fd5b5060405162002c6d38038062002c6d833981016040819052620000339162000257565b336040518060400160405280601481526020017f41657468657220436172626f6e20437265646974000000000000000000000000815250604051806040016040528060048152602001630828aa8960e31b815250815f90816200009791906200032b565b506001620000a682826200032b565b5050506001600160a01b038116620000d857604051631e4fbdf760e01b81525f60048201526024015b60405180910390fd5b620000e381620001ea565b5060017f9b779b17422d0df92223018b32b4d1fa46e071723d6817e2486d003becc55f00556001600160a01b038216620001605760405162461bcd60e51b815260206004820152601760248201527f496e76616c6964206261636b656e6420616464726573730000000000000000006044820152606401620000cf565b6001600160a01b038116620001b85760405162461bcd60e51b815260206004820152601860248201527f496e76616c6964207472656173757279206164647265737300000000000000006044820152606401620000cf565b600880546001600160a01b039384166001600160a01b03199182161790915560098054929093169116179055620003f7565b600780546001600160a01b038381166001600160a01b0319831681179093556040519116919082907f8be0079c531659141344cd1fd0a4f28419497f9722a3daafe3b4186f6b6457e0905f90a35050565b80516001600160a01b038116811462000252575f80fd5b919050565b5f806040838503121562000269575f80fd5b62000274836200023b565b915062000284602084016200023b565b90509250929050565b634e487b7160e01b5f52604160045260245ffd5b600181811c90821680620002b657607f821691505b602082108103620002d557634e487b7160e01b5f52602260045260245ffd5b50919050565b601f8211156200032657805f5260205f20601f840160051c81016020851015620003025750805b601f840160051c820191505b8181101562000323575f81556001016200030e565b50505b505050565b81516001600160401b038111156200034757620003476200028d565b6200035f81620003588454620002a1565b84620002db565b602080601f83116001811462000395575f84156200037d5750858301515b5f19600386901b1c1916600185901b178555620003ef565b5f85815260208120601f198616915b82811015620003c557888601518255948401946001909101908401620003a4565b5085821015620003e357878501515f19600388901b60f8161c191681555b505060018460011b0185555b505050505050565b61286880620004055f395ff3fe6080604052600436106101e6575f3560e01c806395d89b4111610108578063bf333f2c1161009d578063e1a452181161006d578063e1a452181461060f578063e985e9c514610624578063f2fde38b14610643578063f978fd6114610662578063fdec0aca14610690575f80fd5b8063bf333f2c1461056e578063c87b56dd14610582578063d96a094a14610429578063de74e57b146105a1575f80fd5b8063a61c3a75116100d8578063a61c3a75146104f2578063a8602fea14610511578063b88d4fde14610530578063bbbd95191461054f575f80fd5b806395d89b411461048c5780639df58b74146104a0578063a22cb465146104bf578063a2309ff8146104de575f80fd5b806344868abf1161017e5780636b7b131d1161014e5780636b7b131d1461042957806370a082311461043c578063715018a61461045b5780638da5cb5b1461046f575f80fd5b806344868abf146103935780634626402b146103cc57806350fd7367146103eb5780636352211e1461040a575f80fd5b8063107a274a116101b9578063107a274a1461029757806323b872dd14610336578063305a67a81461035557806342842e0e14610374575f80fd5b806301ffc9a7146101ea57806306fdde031461021e578063081812fc1461023f578063095ea7b314610276575b5f80fd5b3480156101f5575f80fd5b5061020961020436600461214a565b6106af565b60405190151581526020015b60405180910390f35b348015610229575f80fd5b506102326106d9565b60405161021591906121b2565b34801561024a575f80fd5b5061025e6102593660046121c4565b610768565b6040516001600160a01b039091168152602001610215565b348015610281575f80fd5b506102956102903660046121f6565b61078f565b005b3480156102a2575f80fd5b506103096102b13660046121c4565b60408051606080820183525f8083526020808401829052928401819052938452600d8252928290208251938401835280546001600160a01b031684526001810154918401919091526002015460ff1615159082015290565b6040805182516001600160a01b031681526020808401519082015291810151151590820152606001610215565b348015610341575f80fd5b5061029561035036600461221e565b61079e565b348015610360575f80fd5b5061029561036f3660046121c4565b61082c565b34801561037f575f80fd5b5061029561038e36600461221e565b61091f565b34801561039e575f80fd5b506103be6103ad3660046121c4565b600b6020525f908152604090205481565b604051908152602001610215565b3480156103d7575f80fd5b5060095461025e906001600160a01b031681565b3480156103f6575f80fd5b50610295610405366004612257565b61093e565b348015610415575f80fd5b5061025e6104243660046121c4565b610aea565b6102956104373660046121c4565b610af4565b348015610447575f80fd5b506103be610456366004612277565b610b00565b348015610466575f80fd5b50610295610b45565b34801561047a575f80fd5b506007546001600160a01b031661025e565b348015610497575f80fd5b50610232610b58565b3480156104ab575f80fd5b5060085461025e906001600160a01b031681565b3480156104ca575f80fd5b506102956104d9366004612290565b610b67565b3480156104e9575f80fd5b50600a546103be565b3480156104fd575f80fd5b5061029561050c366004612277565b610b72565b34801561051c575f80fd5b5061029561052b366004612277565b610c0b565b34801561053b575f80fd5b5061029561054a3660046122dd565b610ca4565b34801561055a575f80fd5b506102956105693660046123f7565b610cbc565b348015610579575f80fd5b506103be60fa81565b34801561058d575f80fd5b5061023261059c3660046121c4565b610e20565b3480156105ac575f80fd5b506105e86105bb3660046121c4565b600d6020525f90815260409020805460018201546002909201546001600160a01b03909116919060ff1683565b604080516001600160a01b0390941684526020840192909252151590820152606001610215565b34801561061a575f80fd5b506103be61271081565b34801561062f575f80fd5b5061020961063e366004612446565b610ea1565b34801561064e575f80fd5b5061029561065d366004612277565b610ece565b34801561066d575f80fd5b5061020961067c3660046121c4565b600c6020525f908152604090205460ff1681565b34801561069b575f80fd5b506102956106aa366004612477565b610f08565b5f6001600160e01b03198216632483248360e11b14806106d357506106d3826111b4565b92915050565b60605f80546106e79061253d565b80601f01602080910402602001604051908101604052809291908181526020018280546107139061253d565b801561075e5780601f106107355761010080835404028352916020019161075e565b820191905f5260205f20905b81548152906001019060200180831161074157829003601f168201915b5050505050905090565b5f61077282611203565b505f828152600460205260409020546001600160a01b03166106d3565b61079a82823361123b565b5050565b6001600160a01b0382166107cc57604051633250574960e11b81525f60048201526024015b60405180910390fd5b5f6107d8838333611248565b9050836001600160a01b0316816001600160a01b031614610826576040516364283d7b60e01b81526001600160a01b03808616600483015260248201849052821660448201526064016107c3565b50505050565b5f818152600d60205260409020546001600160a01b031633146108855760405162461bcd60e51b81526020600482015260116024820152702737ba103634b9ba34b7339037bbb732b960791b60448201526064016107c3565b5f818152600d602052604090206002015460ff166108da5760405162461bcd60e51b81526020600482015260126024820152714c697374696e67206e6f742061637469766560701b60448201526064016107c3565b5f818152600d6020526040808220600201805460ff1916905551339183917f8e25282255ab31897df2b0456bb993ac7f84d376861aefd84901d2d63a7428a29190a350565b61093983838360405180602001604052805f815250610ca4565b505050565b3361094883610aea565b6001600160a01b0316146109905760405162461bcd60e51b815260206004820152600f60248201526e2737ba103a37b5b2b71037bbb732b960891b60448201526064016107c3565b5f81116109d35760405162461bcd60e51b815260206004820152601160248201527005072696365206d757374206265203e203607c1b60448201526064016107c3565b306109dd83610768565b6001600160a01b031614806109f757506109f73330610ea1565b610a535760405162461bcd60e51b815260206004820152602760248201527f436f6e7472616374206e6f7420617070726f76656420746f207472616e73666560448201526639103a37b5b2b760c91b60648201526084016107c3565b6040805160608101825233808252602080830185815260018486018181525f898152600d8552879020955186546001600160a01b0319166001600160a01b03909116178655915190850155516002909301805460ff191693151593909317909255915183815284917f7765a1c07bdce3390c521eaeb86030b188b77cbaba2d76bd7c9c32d906bfbcba910160405180910390a35050565b5f6106d382611203565b610afd8161133a565b50565b5f6001600160a01b038216610b2a576040516322718ad960e21b81525f60048201526024016107c3565b506001600160a01b03165f9081526003602052604090205490565b610b4d6116c0565b610b565f6116ed565b565b6060600180546106e79061253d565b61079a33838361173e565b610b7a6116c0565b6001600160a01b038116610bc25760405162461bcd60e51b815260206004820152600f60248201526e496e76616c6964206164647265737360881b60448201526064016107c3565b600880546001600160a01b0319166001600160a01b0383169081179091556040517fb97001e69625c6f8b654437578af8125e5559ff8785e7532bb05b35f46a6a6e3905f90a250565b610c136116c0565b6001600160a01b038116610c5b5760405162461bcd60e51b815260206004820152600f60248201526e496e76616c6964206164647265737360881b60448201526064016107c3565b600980546001600160a01b0319166001600160a01b0383169081179091556040517f7dae230f18360d76a040c81f050aa14eb9d6dc7901b20fc5d855e2a20fe814d1905f90a250565b610caf84848461079e565b6108263385858585611805565b610cc46116c0565b5f610cce85610aea565b6001600160a01b031603610d1b5760405162461bcd60e51b8152602060048201526014602482015273151bdad95b88191bd95cc81b9bdd08195e1a5cdd60621b60448201526064016107c3565b5f8311610d6a5760405162461bcd60e51b815260206004820152601e60248201527f4164646974696f6e616c2063726564697473206d757374206265203e2030000060448201526064016107c3565b5f848152600b602052604081208054859290610d87908490612589565b92505081905550610dcd8483838080601f0160208091040260200160405190810160405280939291908181526020018383808284375f9201919091525061192d92505050565b837f39200b7c3a067249ce1d08aa5c689caa2647b342f95d7a717ce44cf56568b390600b5f8781526020019081526020015f20548484604051610e129392919061259c565b60405180910390a250505050565b6060610e2b82611203565b505f610e4160408051602081019091525f815290565b90505f610e4d8461197c565b905081515f03610e5e579392505050565b805115610e90578181604051602001610e789291906125d1565b60405160208183030381529060405292505050919050565b610e9984611a1b565b949350505050565b6001600160a01b039182165f90815260056020908152604080832093909416825291909152205460ff1690565b610ed66116c0565b6001600160a01b038116610eff57604051631e4fbdf760e01b81525f60048201526024016107c3565b610afd816116ed565b610f10611a8c565b5f8911610f5f5760405162461bcd60e51b815260206004820152601960248201527f43726564697420616d6f756e74206d757374206265203e20300000000000000060448201526064016107c3565b5f338a8a8a8a8a604051602001610f7b969594939291906125ff565b60408051601f1981840301815291815281516020928301205f818152600c90935291205490915060ff1615610feb5760405162461bcd60e51b815260206004820152601660248201527514da59db985d1d5c9948185b1c9958591e481d5cd95960521b60448201526064016107c3565b7f19457468657265756d205369676e6564204d6573736167653a0a3332000000005f908152601c829052603c812090505f61105d85858080601f0160208091040260200160405190810160405280939291908181526020018383808284375f920191909152508693925050611aa79050565b6008549091506001600160a01b038083169116146110bd5760405162461bcd60e51b815260206004820152601b60248201527f496e76616c6964204149207369676e6572207369676e6174757265000000000060448201526064016107c3565b5f838152600c60205260408120805460ff19166001179055600a805490826110e483612646565b9190505590506110f43382611acf565b6111338189898080601f0160208091040260200160405190810160405280939291908181526020018383808284375f9201919091525061192d92505050565b8c600b5f8381526020019081526020015f208190555080336001600160a01b03167fcab8efc0b7b36a46dd4f0af35d648c21213268c21e1f2c554f2005603568a4b28f8b8b6040516111879392919061259c565b60405180910390a3505050506111a960015f8051602061281383398151915255565b505050505050505050565b5f6001600160e01b031982166380ac58cd60e01b14806111e457506001600160e01b03198216635b5e139f60e01b145b806106d357506301ffc9a760e01b6001600160e01b03198316146106d3565b5f818152600260205260408120546001600160a01b0316806106d357604051637e27328960e01b8152600481018490526024016107c3565b6109398383836001611ae8565b5f828152600260205260408120546001600160a01b039081169083161561127457611274818486611bec565b6001600160a01b038116156112ae5761128f5f855f80611ae8565b6001600160a01b0381165f90815260036020526040902080545f190190555b6001600160a01b038516156112dc576001600160a01b0385165f908152600360205260409020805460010190555b5f8481526002602052604080822080546001600160a01b0319166001600160a01b0389811691821790925591518793918516917fddf252ad1be2c89b69c2b068fc378daa952ba7f163c4a11628f55a4df523b3ef91a4949350505050565b611342611a8c565b5f818152600d60205260409020600281015460ff166113a35760405162461bcd60e51b815260206004820152601960248201527f546f6b656e206e6f74206c697374656420666f722073616c650000000000000060448201526064016107c3565b80600101543410156113ee5760405162461bcd60e51b8152602060048201526014602482015273125b9cdd59999a58da595b9d081c185e5b595b9d60621b60448201526064016107c3565b80546001600160a01b031633036114475760405162461bcd60e51b815260206004820152601b60248201527f43616e6e6f742062757920796f7572206f776e206c697374696e67000000000060448201526064016107c3565b8054600182015460028301805460ff191690556001600160a01b03909116905f61271061147560fa8461265e565b61147f9190612675565b90505f61148c8284612694565b9050611499843388611c50565b6009546040515f916001600160a01b03169084908381818185875af1925050503d805f81146114e3576040519150601f19603f3d011682016040523d82523d5f602084013e6114e8565b606091505b505090508061152f5760405162461bcd60e51b8152602060048201526013602482015272119959481d1c985b9cd9995c8819985a5b1959606a1b60448201526064016107c3565b5f856001600160a01b0316836040515f6040518083038185875af1925050503d805f8114611578576040519150601f19603f3d011682016040523d82523d5f602084013e61157d565b606091505b50509050806115c65760405162461bcd60e51b815260206004820152601560248201527414d95b1b195c881c185e5b595b9d0819985a5b1959605a1b60448201526064016107c3565b8434111561165b575f336115da8734612694565b6040515f81818185875af1925050503d805f8114611613576040519150601f19603f3d011682016040523d82523d5f602084013e611618565b606091505b50509050806116595760405162461bcd60e51b815260206004820152600d60248201526c1499599d5b990819985a5b1959609a1b60448201526064016107c3565b505b604080518681526020810186905233916001600160a01b038916918b917fa831d161ab34fd077c450edfeeac91cd8cc4e1d8a3b07930cf05bf9c0a23d83e910160405180910390a450505050505050610afd60015f8051602061281383398151915255565b6007546001600160a01b03163314610b565760405163118cdaa760e01b81523360048201526024016107c3565b600780546001600160a01b038381166001600160a01b0319831681179093556040519116919082907f8be0079c531659141344cd1fd0a4f28419497f9722a3daafe3b4186f6b6457e0905f90a35050565b6001600160a01b0383166117675760405163a9fbf51f60e01b81525f60048201526024016107c3565b6001600160a01b03821661179957604051630b61174360e31b81526001600160a01b03831660048201526024016107c3565b6001600160a01b038381165f81815260056020908152604080832094871680845294825291829020805460ff191686151590811790915591519182527f17307eab39ab6107e8899845ad3d59bd9653f200f220920489ca2b5937696c31910160405180910390a3505050565b6001600160a01b0383163b1561192657604051630a85bd0160e11b81526001600160a01b0384169063150b7a02906118479088908890879087906004016126a7565b6020604051808303815f875af1925050508015611881575060408051601f3d908101601f1916820190925261187e918101906126e3565b60015b6118e8573d8080156118ae576040519150601f19603f3d011682016040523d82523d5f602084013e6118b3565b606091505b5080515f036118e057604051633250574960e11b81526001600160a01b03851660048201526024016107c3565b805160208201fd5b6001600160e01b03198116630a85bd0160e11b1461192457604051633250574960e11b81526001600160a01b03851660048201526024016107c3565b505b5050505050565b5f8281526006602052604090206119448282612742565b506040518281527ff8e1a15aba9398e019f0b49df1a4fde98ee17ae345cb5f6b5e2c27f5033e8ce79060200160405180910390a15050565b5f8181526006602052604090208054606091906119989061253d565b80601f01602080910402602001604051908101604052809291908181526020018280546119c49061253d565b8015611a0f5780601f106119e657610100808354040283529160200191611a0f565b820191905f5260205f20905b8154815290600101906020018083116119f257829003601f168201915b50505050509050919050565b6060611a2682611203565b505f611a3c60408051602081019091525f815290565b90505f815111611a5a5760405180602001604052805f815250611a85565b80611a6484611cfd565b604051602001611a759291906125d1565b6040516020818303038152906040525b9392505050565b611a94611d8d565b60025f8051602061281383398151915255565b5f805f80611ab58686611dbc565b925092509250611ac58282611e05565b5090949350505050565b61079a828260405180602001604052805f815250611ebd565b8080611afc57506001600160a01b03821615155b15611bbd575f611b0b84611203565b90506001600160a01b03831615801590611b375750826001600160a01b0316816001600160a01b031614155b8015611b4a5750611b488184610ea1565b155b15611b735760405163a9fbf51f60e01b81526001600160a01b03841660048201526024016107c3565b8115611bbb5783856001600160a01b0316826001600160a01b03167f8c5be1e5ebec7d5bd14f71427d1e84f3dd0314c0f7b2291e5b200ac8c7c3b92560405160405180910390a45b505b50505f90815260046020526040902080546001600160a01b0319166001600160a01b0392909216919091179055565b611bf7838383611ed4565b610939576001600160a01b038316611c2557604051637e27328960e01b8152600481018290526024016107c3565b60405163177e802f60e01b81526001600160a01b0383166004820152602481018290526044016107c3565b6001600160a01b038216611c7957604051633250574960e11b81525f60048201526024016107c3565b5f611c8583835f611248565b90506001600160a01b038116611cb157604051637e27328960e01b8152600481018390526024016107c3565b836001600160a01b0316816001600160a01b031614610826576040516364283d7b60e01b81526001600160a01b03808616600483015260248201849052821660448201526064016107c3565b60605f611d0983611f35565b60010190505f8167ffffffffffffffff811115611d2857611d286122c9565b6040519080825280601f01601f191660200182016040528015611d52576020820181803683370190505b5090508181016020015b5f19016f181899199a1a9b1b9c1cb0b131b232b360811b600a86061a8153600a8504945084611d5c57509392505050565b5f8051602061281383398151915254600203610b5657604051633ee5aeb560e01b815260040160405180910390fd5b5f805f8351604103611df3576020840151604085015160608601515f1a611de58882858561200c565b955095509550505050611dfe565b505081515f91506002905b9250925092565b5f826003811115611e1857611e186127fe565b03611e21575050565b6001826003811115611e3557611e356127fe565b03611e535760405163f645eedf60e01b815260040160405180910390fd5b6002826003811115611e6757611e676127fe565b03611e885760405163fce698f760e01b8152600481018290526024016107c3565b6003826003811115611e9c57611e9c6127fe565b0361079a576040516335e2f38360e21b8152600481018290526024016107c3565b611ec783836120d4565b610939335f858585611805565b5f6001600160a01b03831615801590610e995750826001600160a01b0316846001600160a01b03161480611f0d5750611f0d8484610ea1565b80610e995750505f908152600460205260409020546001600160a01b03908116911614919050565b5f8072184f03e93ff9f4daa797ed6e38ed64bf6a1f0160401b8310611f735772184f03e93ff9f4daa797ed6e38ed64bf6a1f0160401b830492506040015b6d04ee2d6d415b85acef81000000008310611f9f576d04ee2d6d415b85acef8100000000830492506020015b662386f26fc100008310611fbd57662386f26fc10000830492506010015b6305f5e1008310611fd5576305f5e100830492506008015b6127108310611fe957612710830492506004015b60648310611ffb576064830492506002015b600a83106106d35760010192915050565b5f80807f7fffffffffffffffffffffffffffffff5d576e7357a4501ddfe92f46681b20a084111561204557505f915060039050826120ca565b604080515f808252602082018084528a905260ff891692820192909252606081018790526080810186905260019060a0016020604051602081039080840390855afa158015612096573d5f803e3d5ffd5b5050604051601f1901519150506001600160a01b0381166120c157505f9250600191508290506120ca565b92505f91508190505b9450945094915050565b6001600160a01b0382166120fd57604051633250574960e11b81525f60048201526024016107c3565b5f61210983835f611248565b90506001600160a01b03811615610939576040516339e3563760e11b81525f60048201526024016107c3565b6001600160e01b031981168114610afd575f80fd5b5f6020828403121561215a575f80fd5b8135611a8581612135565b5f5b8381101561217f578181015183820152602001612167565b50505f910152565b5f815180845261219e816020860160208601612165565b601f01601f19169290920160200192915050565b602081525f611a856020830184612187565b5f602082840312156121d4575f80fd5b5035919050565b80356001600160a01b03811681146121f1575f80fd5b919050565b5f8060408385031215612207575f80fd5b612210836121db565b946020939093013593505050565b5f805f60608486031215612230575f80fd5b612239846121db565b9250612247602085016121db565b9150604084013590509250925092565b5f8060408385031215612268575f80fd5b50508035926020909101359150565b5f60208284031215612287575f80fd5b611a85826121db565b5f80604083850312156122a1575f80fd5b6122aa836121db565b9150602083013580151581146122be575f80fd5b809150509250929050565b634e487b7160e01b5f52604160045260245ffd5b5f805f80608085870312156122f0575f80fd5b6122f9856121db565b9350612307602086016121db565b925060408501359150606085013567ffffffffffffffff8082111561232a575f80fd5b818701915087601f83011261233d575f80fd5b81358181111561234f5761234f6122c9565b604051601f8201601f19908116603f01168101908382118183101715612377576123776122c9565b816040528281528a602084870101111561238f575f80fd5b826020860160208301375f60208483010152809550505050505092959194509250565b5f8083601f8401126123c2575f80fd5b50813567ffffffffffffffff8111156123d9575f80fd5b6020830191508360208285010111156123f0575f80fd5b9250929050565b5f805f806060858703121561240a575f80fd5b8435935060208501359250604085013567ffffffffffffffff81111561242e575f80fd5b61243a878288016123b2565b95989497509550505050565b5f8060408385031215612457575f80fd5b612460836121db565b915061246e602084016121db565b90509250929050565b5f805f805f805f805f60a08a8c03121561248f575f80fd5b8935985060208a013567ffffffffffffffff808211156124ad575f80fd5b6124b98d838e016123b2565b909a50985060408c01359150808211156124d1575f80fd5b6124dd8d838e016123b2565b909850965060608c01359150808211156124f5575f80fd5b6125018d838e016123b2565b909650945060808c0135915080821115612519575f80fd5b506125268c828d016123b2565b915080935050809150509295985092959850929598565b600181811c9082168061255157607f821691505b60208210810361256f57634e487b7160e01b5f52602260045260245ffd5b50919050565b634e487b7160e01b5f52601160045260245ffd5b808201808211156106d3576106d3612575565b83815260406020820152816040820152818360608301375f818301606090810191909152601f909201601f1916010192915050565b5f83516125e2818460208801612165565b8351908301906125f6818360208801612165565b01949350505050565b6bffffffffffffffffffffffff198760601b168152856014820152838560348301375f848201603481015f815284868237505f930160340192835250909695505050505050565b5f6001820161265757612657612575565b5060010190565b80820281158282048414176106d3576106d3612575565b5f8261268f57634e487b7160e01b5f52601260045260245ffd5b500490565b818103818111156106d3576106d3612575565b6001600160a01b03858116825284166020820152604081018390526080606082018190525f906126d990830184612187565b9695505050505050565b5f602082840312156126f3575f80fd5b8151611a8581612135565b601f82111561093957805f5260205f20601f840160051c810160208510156127235750805b601f840160051c820191505b81811015611926575f815560010161272f565b815167ffffffffffffffff81111561275c5761275c6122c9565b6127708161276a845461253d565b846126fe565b602080601f8311600181146127a3575f841561278c5750858301515b5f19600386901b1c1916600185901b178555611924565b5f85815260208120601f198616915b828110156127d1578886015182559484019460019091019084016127b2565b50858210156127ee57878501515f19600388901b60f8161c191681555b5050505050600190811b01905550565b634e487b7160e01b5f52602160045260245ffdfe9b779b17422d0df92223018b32b4d1fa46e071723d6817e2486d003becc55f00a26469706673582212202ecb8670bd089b5c77cbc7d31099ad0eb5617ecbf4f38a7104841ed51cef91c864736f6c63430008180033",
  "linkReferences": {},
  "deployedLinkReferences": {}
}